{
	"data": {
		"bytecode": {
			"linkReferences": {},
			"object": "6080604052336000806101000a81548173ffffffffffffffffffffffffffffffffffffffff021916908373ffffffffffffffffffffffffffffffffffffffff1602179055507f830d2d700a97af574b186c80d40429385d24241565b08a7c559ba283a964d9b133346040516100759291906100dc565b60405180910390a1610105565b600073ffffffffffffffffffffffffffffffffffffffff82169050919050565b60006100ad82610082565b9050919050565b6100bd816100a2565b82525050565b6000819050919050565b6100d6816100c3565b82525050565b60006040820190506100f160008301856100b4565b6100fe60208301846100cd565b9392505050565b6103ad806101146000396000f3fe60806040526004361061002d5760003560e01c806336f40c6114610072578063a928584b1461009d5761006d565b3661006d577f830d2d700a97af574b186c80d40429385d24241565b08a7c559ba283a964d9b133346040516100639291906101da565b60405180910390a1005b600080fd5b34801561007e57600080fd5b506100876100b9565b6040516100949190610203565b60405180910390f35b6100b760048036038101906100b29190610261565b6100c1565b005b600047905090565b344711610103576040517f08c379a00000000000000000000000000000000000000000000000000000000081526004016100fa906102eb565b60405180910390fd5b60008173ffffffffffffffffffffffffffffffffffffffff166108fc349081150290604051600060405180830381858888f1935050505090508061017c576040517f08c379a000000000000000000000000000000000000000000000000000000000815260040161017390610357565b60405180910390fd5b5050565b600073ffffffffffffffffffffffffffffffffffffffff82169050919050565b60006101ab82610180565b9050919050565b6101bb816101a0565b82525050565b6000819050919050565b6101d4816101c1565b82525050565b60006040820190506101ef60008301856101b2565b6101fc60208301846101cb565b9392505050565b600060208201905061021860008301846101cb565b92915050565b600080fd5b600061022e82610180565b9050919050565b61023e81610223565b811461024957600080fd5b50565b60008135905061025b81610235565b92915050565b6000602082840312156102775761027661021e565b5b60006102858482850161024c565b91505092915050565b600082825260208201905092915050565b7f4e6f7420656e6f7567682062616c616e6365206f6e20636f6e74726163742e00600082015250565b60006102d5601f8361028e565b91506102e08261029f565b602082019050919050565b60006020820190508181036000830152610304816102c8565b9050919050565b7f556e6b6e6f776e206572726f722e000000000000000000000000000000000000600082015250565b6000610341600e8361028e565b915061034c8261030b565b602082019050919050565b6000602082019050818103600083015261037081610334565b905091905056fea2646970667358221220c69a2916bba5d737a43f9a5b7fcf154f97b4c08d993c5340dc8ca4e1a339ecc364736f6c634300080f0033",
			"opcodes": "PUSH1 0x80 PUSH1 0x40 MSTORE CALLER PUSH1 0x0 DUP1 PUSH2 0x100 EXP DUP2 SLOAD DUP2 PUSH20 0xFFFFFFFFFFFFFFFFFFFFFFFFFFFFFFFFFFFFFFFF MUL NOT AND SWAP1 DUP4 PUSH20 0xFFFFFFFFFFFFFFFFFFFFFFFFFFFFFFFFFFFFFFFF AND MUL OR SWAP1 SSTORE POP PUSH32 0x830D2D700A97AF574B186C80D40429385D24241565B08A7C559BA283A964D9B1 CALLER CALLVALUE PUSH1 0x40 MLOAD PUSH2 0x75 SWAP3 SWAP2 SWAP1 PUSH2 0xDC JUMP JUMPDEST PUSH1 0x40 MLOAD DUP1 SWAP2 SUB SWAP1 LOG1 PUSH2 0x105 JUMP JUMPDEST PUSH1 0x0 PUSH20 0xFFFFFFFFFFFFFFFFFFFFFFFFFFFFFFFFFFFFFFFF DUP3 AND SWAP1 POP SWAP2 SWAP1 POP JUMP JUMPDEST PUSH1 0x0 PUSH2 0xAD DUP3 PUSH2 0x82 JUMP JUMPDEST SWAP1 POP SWAP2 SWAP1 POP JUMP JUMPDEST PUSH2 0xBD DUP2 PUSH2 0xA2 JUMP JUMPDEST DUP3 MSTORE POP POP JUMP JUMPDEST PUSH1 0x0 DUP2 SWAP1 POP SWAP2 SWAP1 POP JUMP JUMPDEST PUSH2 0xD6 DUP2 PUSH2 0xC3 JUMP JUMPDEST DUP3 MSTORE POP POP JUMP JUMPDEST PUSH1 0x0 PUSH1 0x40 DUP3 ADD SWAP1 POP PUSH2 0xF1 PUSH1 0x0 DUP4 ADD DUP6 PUSH2 0xB4 JUMP JUMPDEST PUSH2 0xFE PUSH1 0x20 DUP4 ADD DUP5 PUSH2 0xCD JUMP JUMPDEST SWAP4 SWAP3 POP POP POP JUMP JUMPDEST PUSH2 0x3AD DUP1 PUSH2 0x114 PUSH1 0x0 CODECOPY PUSH1 0x0 RETURN INVALID PUSH1 0x80 PUSH1 0x40 MSTORE PUSH1 0x4 CALLDATASIZE LT PUSH2 0x2D JUMPI PUSH1 0x0 CALLDATALOAD PUSH1 0xE0 SHR DUP1 PUSH4 0x36F40C61 EQ PUSH2 0x72 JUMPI DUP1 PUSH4 0xA928584B EQ PUSH2 0x9D JUMPI PUSH2 0x6D JUMP JUMPDEST CALLDATASIZE PUSH2 0x6D JUMPI PUSH32 0x830D2D700A97AF574B186C80D40429385D24241565B08A7C559BA283A964D9B1 CALLER CALLVALUE PUSH1 0x40 MLOAD PUSH2 0x63 SWAP3 SWAP2 SWAP1 PUSH2 0x1DA JUMP JUMPDEST PUSH1 0x40 MLOAD DUP1 SWAP2 SUB SWAP1 LOG1 STOP JUMPDEST PUSH1 0x0 DUP1 REVERT JUMPDEST CALLVALUE DUP1 ISZERO PUSH2 0x7E JUMPI PUSH1 0x0 DUP1 REVERT JUMPDEST POP PUSH2 0x87 PUSH2 0xB9 JUMP JUMPDEST PUSH1 0x40 MLOAD PUSH2 0x94 SWAP2 SWAP1 PUSH2 0x203 JUMP JUMPDEST PUSH1 0x40 MLOAD DUP1 SWAP2 SUB SWAP1 RETURN JUMPDEST PUSH2 0xB7 PUSH1 0x4 DUP1 CALLDATASIZE SUB DUP2 ADD SWAP1 PUSH2 0xB2 SWAP2 SWAP1 PUSH2 0x261 JUMP JUMPDEST PUSH2 0xC1 JUMP JUMPDEST STOP JUMPDEST PUSH1 0x0 SELFBALANCE SWAP1 POP SWAP1 JUMP JUMPDEST CALLVALUE SELFBALANCE GT PUSH2 0x103 JUMPI PUSH1 0x40 MLOAD PUSH32 0x8C379A000000000000000000000000000000000000000000000000000000000 DUP2 MSTORE PUSH1 0x4 ADD PUSH2 0xFA SWAP1 PUSH2 0x2EB JUMP JUMPDEST PUSH1 0x40 MLOAD DUP1 SWAP2 SUB SWAP1 REVERT JUMPDEST PUSH1 0x0 DUP2 PUSH20 0xFFFFFFFFFFFFFFFFFFFFFFFFFFFFFFFFFFFFFFFF AND PUSH2 0x8FC CALLVALUE SWAP1 DUP2 ISZERO MUL SWAP1 PUSH1 0x40 MLOAD PUSH1 0x0 PUSH1 0x40 MLOAD DUP1 DUP4 SUB DUP2 DUP6 DUP9 DUP9 CALL SWAP4 POP POP POP POP SWAP1 POP DUP1 PUSH2 0x17C JUMPI PUSH1 0x40 MLOAD PUSH32 0x8C379A000000000000000000000000000000000000000000000000000000000 DUP2 MSTORE PUSH1 0x4 ADD PUSH2 0x173 SWAP1 PUSH2 0x357 JUMP JUMPDEST PUSH1 0x40 MLOAD DUP1 SWAP2 SUB SWAP1 REVERT JUMPDEST POP POP JUMP JUMPDEST PUSH1 0x0 PUSH20 0xFFFFFFFFFFFFFFFFFFFFFFFFFFFFFFFFFFFFFFFF DUP3 AND SWAP1 POP SWAP2 SWAP1 POP JUMP JUMPDEST PUSH1 0x0 PUSH2 0x1AB DUP3 PUSH2 0x180 JUMP JUMPDEST SWAP1 POP SWAP2 SWAP1 POP JUMP JUMPDEST PUSH2 0x1BB DUP2 PUSH2 0x1A0 JUMP JUMPDEST DUP3 MSTORE POP POP JUMP JUMPDEST PUSH1 0x0 DUP2 SWAP1 POP SWAP2 SWAP1 POP JUMP JUMPDEST PUSH2 0x1D4 DUP2 PUSH2 0x1C1 JUMP JUMPDEST DUP3 MSTORE POP POP JUMP JUMPDEST PUSH1 0x0 PUSH1 0x40 DUP3 ADD SWAP1 POP PUSH2 0x1EF PUSH1 0x0 DUP4 ADD DUP6 PUSH2 0x1B2 JUMP JUMPDEST PUSH2 0x1FC PUSH1 0x20 DUP4 ADD DUP5 PUSH2 0x1CB JUMP JUMPDEST SWAP4 SWAP3 POP POP POP JUMP JUMPDEST PUSH1 0x0 PUSH1 0x20 DUP3 ADD SWAP1 POP PUSH2 0x218 PUSH1 0x0 DUP4 ADD DUP5 PUSH2 0x1CB JUMP JUMPDEST SWAP3 SWAP2 POP POP JUMP JUMPDEST PUSH1 0x0 DUP1 REVERT JUMPDEST PUSH1 0x0 PUSH2 0x22E DUP3 PUSH2 0x180 JUMP JUMPDEST SWAP1 POP SWAP2 SWAP1 POP JUMP JUMPDEST PUSH2 0x23E DUP2 PUSH2 0x223 JUMP JUMPDEST DUP2 EQ PUSH2 0x249 JUMPI PUSH1 0x0 DUP1 REVERT JUMPDEST POP JUMP JUMPDEST PUSH1 0x0 DUP2 CALLDATALOAD SWAP1 POP PUSH2 0x25B DUP2 PUSH2 0x235 JUMP JUMPDEST SWAP3 SWAP2 POP POP JUMP JUMPDEST PUSH1 0x0 PUSH1 0x20 DUP3 DUP5 SUB SLT ISZERO PUSH2 0x277 JUMPI PUSH2 0x276 PUSH2 0x21E JUMP JUMPDEST JUMPDEST PUSH1 0x0 PUSH2 0x285 DUP5 DUP3 DUP6 ADD PUSH2 0x24C JUMP JUMPDEST SWAP2 POP POP SWAP3 SWAP2 POP POP JUMP JUMPDEST PUSH1 0x0 DUP3 DUP3 MSTORE PUSH1 0x20 DUP3 ADD SWAP1 POP SWAP3 SWAP2 POP POP JUMP JUMPDEST PUSH32 0x4E6F7420656E6F7567682062616C616E6365206F6E20636F6E74726163742E00 PUSH1 0x0 DUP3 ADD MSTORE POP JUMP JUMPDEST PUSH1 0x0 PUSH2 0x2D5 PUSH1 0x1F DUP4 PUSH2 0x28E JUMP JUMPDEST SWAP2 POP PUSH2 0x2E0 DUP3 PUSH2 0x29F JUMP JUMPDEST PUSH1 0x20 DUP3 ADD SWAP1 POP SWAP2 SWAP1 POP JUMP JUMPDEST PUSH1 0x0 PUSH1 0x20 DUP3 ADD SWAP1 POP DUP2 DUP2 SUB PUSH1 0x0 DUP4 ADD MSTORE PUSH2 0x304 DUP2 PUSH2 0x2C8 JUMP JUMPDEST SWAP1 POP SWAP2 SWAP1 POP JUMP JUMPDEST PUSH32 0x556E6B6E6F776E206572726F722E000000000000000000000000000000000000 PUSH1 0x0 DUP3 ADD MSTORE POP JUMP JUMPDEST PUSH1 0x0 PUSH2 0x341 PUSH1 0xE DUP4 PUSH2 0x28E JUMP JUMPDEST SWAP2 POP PUSH2 0x34C DUP3 PUSH2 0x30B JUMP JUMPDEST PUSH1 0x20 DUP3 ADD SWAP1 POP SWAP2 SWAP1 POP JUMP JUMPDEST PUSH1 0x0 PUSH1 0x20 DUP3 ADD SWAP1 POP DUP2 DUP2 SUB PUSH1 0x0 DUP4 ADD MSTORE PUSH2 0x370 DUP2 PUSH2 0x334 JUMP JUMPDEST SWAP1 POP SWAP2 SWAP1 POP JUMP INVALID LOG2 PUSH5 0x6970667358 0x22 SLT KECCAK256 0xC6 SWAP11 0x29 AND 0xBB 0xA5 0xD7 CALLDATACOPY LOG4 EXTCODEHASH SWAP11 JUMPDEST PUSH32 0xCF154F97B4C08D993C5340DC8CA4E1A339ECC364736F6C634300080F00330000 "
		},
		"gasEstimates": {
			"creation": {
				"codeDepositCost": "188200",
				"executionCost": "26074",
				"totalCost": "214274"
			},
			"external": {
				"getETH(address)": "infinite",
				"queryBalance()": "317"
			}
		},
		"methodIdentifiers": {
			"getETH(address)": "a928584b",
			"queryBalance()": "36f40c61"
		}
	},
	"abi": [
		{
			"inputs": [],
			"stateMutability": "payable",
			"type": "constructor"
		},
		{
			"anonymous": false,
			"inputs": [
				{
					"indexed": false,
					"internalType": "address",
					"name": "get",
					"type": "address"
				},
				{
					"indexed": false,
					"internalType": "uint256",
					"name": "amount",
					"type": "uint256"
				}
			],
			"name": "GetETH",
			"type": "event"
		},
		{
			"anonymous": false,
			"inputs": [
				{
					"indexed": false,
					"internalType": "address",
					"name": "donar",
					"type": "address"
				},
				{
					"indexed": false,
					"internalType": "uint256",
					"name": "amount",
					"type": "uint256"
				}
			],
			"name": "ReceiveETH",
			"type": "event"
		},
		{
			"inputs": [
				{
					"internalType": "address payable",
					"name": "_to",
					"type": "address"
				}
			],
			"name": "getETH",
			"outputs": [],
			"stateMutability": "payable",
			"type": "function"
		},
		{
			"inputs": [],
			"name": "queryBalance",
			"outputs": [
				{
					"internalType": "uint256",
					"name": "",
					"type": "uint256"
				}
			],
			"stateMutability": "view",
			"type": "function"
		},
		{
			"stateMutability": "payable",
			"type": "receive"
		}
	]
}